:020000040000FA
:08000000803102288731F62F40
:1006BE00640080010131890B602B0034F800F401D5
:1006CE00F5017008F200F3017208F6007308F700E6
:1006DE00781C752B7608F4077708F53D0130F63552
:1006EE00F70D890B762B0310F80C7808031D6F2B72
:1006FE007508F1007408F00008007108803AF200E5
:10070E0080307202031D8D2B0E307002031C942B51
:10071E00FF30F000FF30F10008007035B83E860063
:10072E00870116000104031D9F2BF001F101080043
:10073E000130F0000030F1000800F101F201710803
:10074E0020009F00970196019E173430F000F23082
:10075E00890BAF2BF00BAF2B20009E137135A03EF3
:10076E00860087011608C03F1708C13F7135BA3E93
:10077E00860087010030C03FC13F0130F1070030D5
:10078E00F23D7208803AF00080307002031DD12BCA
:10079E000D30710203180800A62B7030210099004D
:1007AE00303023008C00303021008C001F302300AD
:1007BE008D001F3021008D008E011F3023008F0011
:1007CE001F3021008F0020008C018D018E018F01C2
:1007DE000C309E00C1309800970196010B178B17B5
:1007EE00243023009E0090309D001E121E119F117A
:1007FE0033309B008331A42383318431AC24833185
:10080E0001302000D1000030D2002000111E0C2C2F
:10081E005208F1005108F0008331842383317003B4
:10082E007104031D1F2C20005108303E23009A0036
:10083E0001302000D1070030D23D5208803AD0005E
:10084E0080305002031D2D2C0E3051020318042C43
:10085E000C2C003020003A05C20000303B05C300CE
:10086E0080303C05C4007F303D05C500450844047A
:10087E0043044204031D4B2C0030BD000030BC006D
:10088E000030BB000030BA0000303E05C200003020
:10089E003F05C30080304005C4007F304105C500D0
:1008AE004508440443044204031D652C0030C10076
:1008BE000030C0000030BF000030BE00BD1F7F2CD6
:1008CE000030C2000030C3000030C4008030C500CC
:1008DE003A08C2023B08C33B3C08C43B3D08C53B3B
:1008EE004508BD004408BC004308BB004208BA00DE
:1008FE00C11F992C0030C2000030C3000030C4006C
:10090E008030C5003E08C2023F08C33B4008C43BCE
:10091E004108C53B4508C1004408C0004308BF005C
:10092E004208BE008030BD068030C10641083D023F
:10093E00031D080040083C02031D08003F083B024F
:10094E00031D08003E083A0208002000CA01CB0130
:10095E0020004A089F00970196019E173430200010
:10096E00C600F130890BB92CC60BB92C0032200011
:10097E009E131708C9001608C8003F30A300663042
:10098E00A2006630A1006630A0004A35A03E860067
:10099E008701403FC600413FC7004608F0004708A8
:1009AE00F100F201F30100308531352584317308F1
:1009BE002000A7007208A6007108A5007008A40008
:1009CE008531CA25843120002308BD002208BC00D1
:1009DE002108BB002008BA004808F0004908F100C1
:1009EE00F201F30100308531352584317308200082
:1009FE00C1007208C0007108BF007008BE008431CB
:100A0E0030248431031C152D20004A35BA3E860051
:100A1E0087014808C03F4908C13F252D20004A35AF
:100A2E00BA3E860087010030C03FC13F4A35A03E26
:100A3E00860087014808C03F4908C13F0130CA07F8
:100A4E000030CB3D4B08803AC60080304602031D75
:100A5E00322D0D304A0203180800AF2CF80078082A
:100A6E00031DF31F4A2D7009FA007109FB0072096C
:100A7E00FC007309FD00FA0A0319FB0A0319FC0AAC
:100A8E000319FD0A522D7308FD007208FC0071084F
:100A9E00FB007008FA007308720471047004031DE1
:100AAE00612D0030F3000030F2000030F100003014
:100ABE00F00008009630F4007408F900FE307D0551
:100ACE000319882D0130F4007408F9070130FD3642
:100ADE00FC0CFB0CFA0C890B6E2D652D0130F4000D
:100AEE007408F9070130FA070030FB3D0030FC3D79
:100AFE000030FD3D0130FD36FC0CFB0CFA0C890B71
:100B0E00822DFF307D0503199A2D752D0230790245
:100B1E00031C9C2D0130F9020130FA35FB0DFC0D42
:100B2E00FD0D890B942DFC1F8D2D7918A62DFF30F0
:100B3E00FA05FF30FB057F30FC05FF30FD05031085
:100B4E00F90C7908F400F501F601F7011830F435C7
:100B5E00F50DF60DF70D890BAE2D7408FA04750818
:100B6E00FB047608FC047708FD047808031DF31FC8
:100B7E00C12DFD177D08F3007C08F2007B08F10003
:100B8E007A08F0000800200023088039A800280801
:100B9E00AD002335A8002808B300A21B3314330878
:100BAE000319E62D330A031DE42D0030A300003097
:100BBE00A2000030A1000030A000A217EE2D0030E0
:100BCE00A3000030A2000030A1000030A0002708D2
:100BDE008039A8002808AD062735A8002808B200DD
:100BEE00A61B321432080319092E320A031D072ED2
:100BFE000030A7000030A6000030A5000030A40091
:100C0E00A617112E0030A7000030A6000030A50058
:100C1E000030A4003208031D3308031D1F2E0030C0
:100C2E00A3000030A2000030A1000030A000080098
:100C3E002008A8002808F000260883316523853196
:100C4E0071082000B9007008B8003808A800A90182
:100C5E00AA01AB012B08B1002A08B0002908AF0089
:100C6E002808AE003908A800A901AA01AB012B087B
:100C7E00B7002A08B6002908B5002808B4002108D4
:100C8E00A8002808F00025088331652385317108F6
:100C9E002000B9007008B8003808A800A901AA0100
:100CAE00AB012808AE072908AF3D2A08B03D2B0836
:100CBE00B13D3908A800A901AA01AB012808B40763
:100CCE002908B53D2A08B63D2B08B73D2208A800D5
:100CDE002808F0002408833165238531710820002F
:100CEE00B9007008B8003808A800A901AA01AB0124
:100CFE002808AE072908AF3D2A08B03D2B08B13DA4
:100D0E003908A800A901AA01AB012808B4072908CF
:100D1E00B53D2A08B63D2B08B73D0830AE35AF0DB0
:100D2E00B00DB10D890B952E2108A8002808F000F2
:100D3E00240883316523853171082000B9007008BD
:100D4E00B8003808AE073908AF3D0030B03DB13DB0
:100D5E002008A8002808F000250883316523853176
:100D6E0071082000B9007008B8003808AE073908BD
:100D7E00AF3D0030B03DB13D0830AE35AF0DB00DDA
:100D8E00B10D890BC42E2008A8002808F0002408F5
:100D9E0083316523853171082000B9007008B800D1
:100DAE003808AE073908AF3D0030B03DB13D2108DF
:100DBE00A8002808F00026088331652385317108C4
:100DCE002000B9007008B8003808B4073908B53DDE
:100DDE000030B63DB73D2208A8002808F0002508CF
:100DEE0083316523853171082000B9007008B80081
:100DFE003808B4073908B53D0030B63DB73D220876
:100E0E00A8002808F0002608833165238531710873
:100E1E002000B9007008B8003808A8003908A900E9
:100E2E00AA01AB010830A835A90DAA0DAB0D890B8F
:100E3E001A2F2808B4072908B53D2A08B63D2B08F5
:100E4E00B73D2E08A8002F08A9003008AA003108C7
:100E5E00AB001830AB36AA0CA90CA80C890B312F9D
:100E6E002808B4072908B53D2A08B63D2B08B73D1A
:100E7E000830AE35AF0DB00DB10D890B402F3308D4
:100E8E003207A800A901A90D2808823EB800FF303C
:100E9E00293DB900B61B682F0130B435B50DB60D1E
:100EAE00B70D890B542FB11B34140130AE35AF0D75
:100EBE00B00DB10D890B5D2FFF30B807FF30B93D76
:100ECE00512FB201B11F812FFF302E05A800FF3028
:100EDE002F05A900FF303005AA007F303105AB0089
:100EEE002B082A0429042804031934187F2F812F74
:100EFE00B201B20A32080319AA2F0130B40700302A
:100F0E00B53D0030B63D0030B73D371CAA2F340832
:100F1E00A8003508A9003608AA003708AB00013032
:100F2E00AC00AB37AA0CA90CA80CAC0B982F2B0855
:100F3E00B7002A08B6002908B5002808B400013009
:100F4E00B8070030B93D3908803AA8008030280231
:100F5E00031DB32FFF303802031CBF2F7F3020003C
:100F6E00B7008030B6000030B5000030B400E92F75
:100F7E0020003908803AA80080302802031DC92FAE
:100F8E00013038020318D62F00302000B700003091
:100F9E00B6000030B5000030B400AD01E92F2000DE
:100FAE003808A8002808B300FF30B405FF30B50597
:100FBE007F30B6050030B7053318B6173336A800A4
:100FCE002808B7002D08A8002808B7043708A30082
:100FDE003608A2003508A1003408A0000800A03091
:100FEE00840000308500343083315F23200083314C
:020FFE00D42BF2
:020000040001F9
:04000E00E4FFFFFF0D
:00000001FF
